:0300000002001FDC
:04000B0012007E322F
:10001B001200A73274303139740F31397401313910
:0F002B00740631397480313975A88A78017D01E6
:10003A0002003DC28CB80141BD002430800E80F31D
:0F004A007800C28E3080F97D012080E775890231
:10005900758BC0758DC0758AC0758CC0D28C80E1D6
:0E0069007D00758902758BF0758DF0758AF03B
:10007700758CF0D28E80BF7901C28C22EAB9011A41
:0E008700B90011FA780179007D01EED2E02374
:1000950020E40FFE80A223D2E02380E92323D2E0CF
:1000A50080E3C28E1200ACEAB406027B00B495026E
:0F00B5007B01B499027B02B425027B03B40102E4
:0F00C4007B04B459027B05B429027B06B45502B4
:0F00D3007B07B405027B08B46A027B09B42602DE
:0F00E2007B0AB465027B0BB40A027B0CB40902E3
:0F00F1007B0DB42A027B0EB469027B0FB4A6020A
:0F0100007B10B419027B11B415027B12B40202FA
:0F010F007B13B416027B14B456027B15B41A028C
:0F011E007B16B496027B17B49A027B18B4A50225
:10012D007B19EB2441FC7BFF120161223153C2810B
:0F013D00C282F590D283C283223153F590D281D2
:0F014C00C282D283C28322D297C281D282D2834F
:0A015B00C2832097F922EC314622FE
:00000001FF
