:0300000002001FDC
:04000B0012006A3243
:10001B001200933275A88A78017D01020029C28CE7
:0F002B00B80141BD002430800E80F37800C28EF2
:0E003A003080F97D012080E7758902758BC04A
:0F004800758DC0758AC0758CC0D28C80E17D002B
:0F005700758902758BF0758DF0758AF0758CF0D8
:10006600D28E80BF7901C28C22EAB9011AB9001179
:0F007600FA780179007D01EED2E02320E40FFE3D
:1000850080A223D2E02380E92323D2E080E3C2B516
:02009500232224
:00000001FF
